:020000040800F2
:1000000000040020010B0008010C0008010C00088E
:10001000010C0008010C0008010C0008010C00088C
:10002000010C0008010C0008010C0008510C00082C
:10003000010C0008010C0008010C0008210C00084C
:10004000010C0008010C0008010C0008010C00085C
:10005000010C0008010C0008010C0008010C00084C
:10006000010C0008010C0008010C0008010C00083C
:10007000010C0008010C0008010C0008010C00082C
:10008000010C0008010C0008010C0008010C00081C
:10009000010C0008010C0008010C0008010C00080C
:1000A000010C0008413E0008010C0008010C00088A
:1000B000613E0008010C0008010C0008010C00085A
:1000C000010C0008010C0008010C0008010C0008DC
:1000D000010C0008010C0008010C0008010C0008CC
:1000E000010C0008010C0008010C0008010C0008BC
:1000F000010C0008010C0008010C0008010C0008AC
:10010000010C0008010C0008010C0008010C00089B
:10011000010C0008010C0008010C0008010C00088B
:10012000010C0008010C0008010C0008010C00087B
:10013000010C0008010C0008010C0008010C00086B
:10014000010C0008010C0008010C0008614C0008BB
:10015000010C0008010C0008010C0008010C00084B
:10016000010C0008010C0008010C0008010C00083B
:10017000010C0008010C0008010C0008010C00082B
:08018000010C0008010C00084D
:10019000844641EA000313F003036DD1403A41D392
:1001A00051F8043B40F8043B51F8043B40F8043B51
:1001B00051F8043B40F8043B51F8043B40F8043B41
:1001C00051F8043B40F8043B51F8043B40F8043B31
:1001D00051F8043B40F8043B51F8043B40F8043B21
:1001E00051F8043B40F8043B51F8043B40F8043B11
:1001F00051F8043B40F8043B51F8043B40F8043B01
:1002000051F8043B40F8043B51F8043B40F8043BF0
:1002100051F8043B40F8043B51F8043B40F8043BE0
:10022000403ABDD2303211D351F8043B40F8043B80
:1002300051F8043B40F8043B51F8043B40F8043BC0
:1002400051F8043B40F8043B103AEDD20C3205D390
:1002500051F8043B40F8043B043AF9D2043208D088
:10026000D2071CBF11F8013B00F8013B01D30B88FA
:1002700003806046704700BF082A13D38B078DD0D8
:1002800010F003038AD0C3F10403D21ADB071CBFAA
:1002900011F8013B00F8013B80D331F8023B20F814
:1002A000023B7BE7043AD9D3013A11F8013B00F84D
:1002B000013BF9D20B7803704B7843708B788370D5
:1002C00060467047000000000000000000000000D1
:1002D00000B583B00023019302F012FB00F0F8FD9B
:1002E000244802F0D5FC2348234902F009FD224BA3
:1002F0001B68DB6B204A1268D26B926B22F40022DF
:100300009A6344F6176001F06BFB1B4B1B681846A1
:100310001A4903F0F5F8184B1B68DB6B164A126894
:10032000D26B926B42F400229A6300F0C9F800F09D
:10033000BFFB019B002B0ED10E4BD3F854321B6830
:100340001B78042B11D10E4840F63811362205F0E7
:10035000BFFA019009E0019B93F820300E2B04D1E5
:10036000019801F0A5FB0023019340F2EB1001F08E
:1003700037FBDEE7B00C0020506F0008406F00082C
:10038000906D0008AFF30080AFF30080AFF3008002
:1003900000B589B001903F4B9B693F4A9A613F4B42
:1003A0001B6802933E4B1B6803933E4B1B680493F0
:1003B0003D4B1B680593002307933C4B1B68012BA7
:1003C00011D13A4B00221A60394B1B68012B03D123
:1003D000374B00221A6006E0354B1B68002B02D118
:1003E000334B01221A6000230693324A079B9B007D
:1003F00008A90B4453F8183C012101FA03F39BB2FE
:1004000013832D4B1B68013B42F2107202FB03F376
:100410002A4A82FB03129211DB17D31A01331846C2
:1004200001F0DEFA234A079B9B0008A90B4453F80E
:10043000183C012101FA03F39BB253831E4B1B6846
:10044000013B42F2107202FB03F31C4A82FB0312CF
:100450009211DB17D31A0133184601F0C1FA144B7D
:100460001B68012B07D1079B01330793079B032BC5
:1004700001DD002307930E4B1B68002B08D1079B5F
:10048000013B0793079B002B02DA0323079394E7B2
:1004900093E700BF681800205C620008480800204D
:1004A0004C0800205008002054080020F4100020C0
:1004B000F0100020000C02403C080020D34D6210D8
:1004C00000B583B00023009304484FF4DC71402250
:1004D000034B01F04DFA03B05DF804FB080F002058
:1004E00091030008AFF30080AFF30080AFF300800A
:1004F00082B001908DF803108DF80220ADF8003025
:100500009DF80330022B05D0032B05D0012B0DD114
:10051000084B0CE0084B0AE09DF80230032B05D88D
:100520009DF80230DA00054B134400E00023184622
:1005300002B07047C06D0008206E0008C06E000851
:1005400000B583B001900B468DF803309DF8033061
:10055000052B27D801A252F823F000BFA5050008FB
:10056000A505000875050008A5050008A5050008F3
:10057000A5050008202383F3118800F089FD019868
:1005800001210A4A03F004F801980221084A02F006
:10059000FFFF019802F0ECFB00F092FD002383F3D3
:1005A000118800E000BF03B05DF804FBE06E0008B6
:1005B000106F0008AFF30080AFF30080AFF300804E
:1005C00008B503F0A5FB08BDAFF30080AFF30080D2
:1005D000704700BFAFF30080AFF30080AFF300803F
:1005E00000B587B0039002910192029B002B04DDBD
:1005F0000398104905F05CFA18E004AB0020194696
:1006000002F00EF9059001F0EBFF034603980A494A
:100610001A4605F04DFA03980849059A05F048FA7C
:10062000049B039806491A4605F042FA07B05DF8A4
:1006300004FB00BFCC620008DC620008FC6200081A
:1006400018630008AFF30080AFF30080AFF30080C1
:1006500070B58CB0099008910792089B002B04DDBF
:1006600009981F4905F024FA37E01E4B00931E4BF2
:1006700001931E4B02931E4B03931E4B0493099848
:100680001D491E4A1E4B05F013FA01F0B9FA0B90F2
:100690000B9A0B9BDB680B998E680B9991F82210D3
:1006A00001390D460B9991F820100846154951F86B
:1006B00020400B99486A0B9989690096019502942C
:1006C000039004910998104905F0F2F90B9801F094
:1006D000B7FA0B900B9B002BDAD10CB070BD00BFAA
:1006E000386300087C630008846300088C6300089A
:1006F000946300089C6300084C6300087063000862
:100700007463000800080020A4630008AFF30080B1
:1007100000B585B0039002910192029B012B04D099
:1007200003981B4905F0C4F92EE0019B1B681B7858
:10073000312B06D1174B174A526982F400525A6185
:1007400022E0019B1B681B78322B06D1114B114A0A
:10075000526982F480525A6116E0019B1B681B7833
:10076000332B06D10B4B0B4A526982F480425A61FB
:100770000AE0019B1B681B78342B05D1054B054A09
:10078000526982F400425A6105B05DF804FB00BF73
:10079000D4630008000C0240AFF30080AFF3008088
:1007A00000B587B00390029101921E230593029B2E
:1007B000012B00D015E0019B1B68184605F088FB53
:1007C0000590059A41F288339A4202DD41F288335E
:1007D0000593059B042B01DC05230593024B059A29
:1007E0001A6007B05DF804FB3C080020AFF30080FE
:1007F00000B587B00390029101921E230593029BDE
:10080000012B00D015E0019B1B68184605F060FB2A
:100810000590059A41F288339A4202DD41F288330D
:100820000593059B042B01DC05230593024B059AD8
:100830001A6007B05DF804FB40080020AFF30080A9
:1008400000B587B00390029101921E230593029B8D
:10085000012B00D015E0019B1B68184605F038FB02
:100860000590059A41F288339A4202DD41F28833BD
:100870000593059B042B01DC05230593024B059A88
:100880001A6007B05DF804FB44080020AFF3008055
:1008900000B585B0039002910192029B012B07D015
:1008A000054B1B68039805491A4605F001F900BF7E
:1008B00005B05DF804FB00BF3C080020EC630008B5
:1008C00000B585B0039002910192029B012B07D0E5
:1008D000054B1B68039805491A4605F0E9F800BF67
:1008E00005B05DF804FB00BF400800200864000864
:1008F00000B585B0039002910192029B012B07D0B5
:10090000054B1B68039805491A4605F0D1F800BF4E
:1009100005B05DF804FB00BF440800202C6400080B
:1009200000B585B0039002910192029B012B11D07A
:100930000A4B1B68012B04D10398094905F0B8F84C
:1009400007E0064B1B68002B03D10398054905F00F
:10095000AFF800BF05B05DF804FB00BFF010002049
:100960005064000870640008AFF30080AFF30080AB
:1009700000B587B00390029101921E230593029B5C
:10098000012B04D003980D4905F092F812E0019B69
:100990001B68184605F09CFA0590059B012B01DDAC
:1009A00001230593059B002B01DA00230593044BDB
:1009B000059A1A6007B05DF804FB00BF9864000850
:1009C000F0100020AFF30080AFF30080AFF30080A1
:1009D00000B587B001902C4B9B692C4A9A6100238B
:1009E0000593002304930023059346E040F2EB10A7
:1009F00000F0F6FF059B01330593059B0F2B05DDEA
:100A0000059B272B02DC6123039304E0059B272B26
:100A100001DD62230393039B612B02D0622B03D081
:100A20002BE01B4B01221A60049B002B11D1194BA8
:100A30001B685A1C174B1A60164B1A68164B1B681A
:100A40009A421ADD144B1A68124B1A600123049360
:100A500013E0049B012B10D10E4B1B685A1E0D4B4B
:100A60001A600C4B1A680D4B1B689A4205DA0B4B47
:100A70001A68084B1A6000230493094B1B6903F0A2
:100A80000103002BB2D1AEE76818002050650008C2
:100A9000F41000203C0800204408002040080020FA
:100AA00000000240AFF30080AFF30080AFF300809E
:100AB00000B583B00023009304484FF4DC7140225A
:100AC000034B00F055FF03B05DF804FBF810002065
:100AD000D1090008AFF30080AFF30080AFF30080CE
:100AE000704700BFAFF30080AFF30080AFF300802A
:100AF000FEE700BFAFF30080AFF30080AFF30080EC
:100B000072B62D4C84F309882C4B4FF040425A604A
:100B10002B4B2B4AD2F8882042F47002C3F888206D
:100B20000024E1EE104A254BDC60062484F314888F
:100B3000BFF36F8F234C244D04E023461C1D4FF060
:100B400055321A60AC42F8D3204C1B4D04E02346CA
:100B50001C1D4FF055321A60AC42F8D3FFF730FD40
:100B60001B4D1C4C05E023461C1D2A46151D126812
:100B70001A60194B9C42F6D3184C194D03E02346DA
:100B80001C1D00221A60AC42F9D3FFF7A9FF154CD7
:100B900002E0236898470434134B9C42F9D3FFF7D3
:100BA00097FB124C02E0236898470434104B9C4298
:100BB000F9D3FFF79DFF00BF0008002030EF00E0F1
:100BC00000ED00E0000000200004002000040020F0
:100BD0002872000800080020AC0C0020B00C002097
:100BE000041B002088010008880100088801000813
:100BF00088010008AFF30080AFF30080AFF30080FE
:100C0000FEE700BFAFF30080AFF30080AFF30080DA
:100C100072B6FEE7AFF30080AFF30080AFF3008061
:100C200008B500F065FA202383F3118800F030FA4C
:100C300000F08EF900F044FA002383F3118800F0ED
:100C400077FA00F045F808BDAFF30080AFF30080FD
:100C500082B0EFF309830193019B68330193084B42
:100C6000019A526E5A60064B054A926868329A6041
:100C7000019B83F30988002383F3118802B0704736
:100C800030EF00E0AFF30080AFF30080AFF30080FF
:100C900008B50A4B00229A60084B094ADA6007201F
:100CA000102100F0DDF80A204FF4007100F0D8F8B0
:100CB0000B20802100F0D4F808BD00BF00ED00E05B
:100CC0000003FA05AFF30080AFF30080AFF30080BC
:100CD00082B0202383F31188264B5B6803F4006302
:100CE000002B41D0EFF309830193019B683B0193F3
:100CF000019B83F30988019B4FF08072DA611E4BE0
:100D00009B6993F82330002B0BD01B4B1B689A6810
:100D1000194B9B699B689A4294BF00230123DBB265
:100D20000AE0154B1B689A68134B9B699B689A42B3
:100D300034BF00230123DBB2002B05D0019B0F4AF7
:100D40009A61F1EE10FA02E0019B0D4A9A61019B53
:100D500068330C4A52680092009A5A66094B009A0E
:100D600042F001025A6002E0002383F3118802B0CE
:100D7000704700BF00ED00E068180020910D0008EA
:100D80009C0D000830EF00E0AFF30080AFF300806F
:100D900000F04EF900F024FD00F062F900DF00BF22
:100DA00003460A462DE9F04F2DED108AC2F80CD00B
:100DB000D3F80CD0BDEC108ABDE8F08FAFF3008003
:100DC00008B500F04DF9002383F311882846A047A9
:100DD00000F026FE08BD00BFAFF30080AFF3008037
:100DE00010B485B001900091019B03F00303DB0078
:100DF0000393194B019A9208174901988008C03053
:100E000051F820000399FF2404FA01F1C943084076
:100E10000399009C04FA01F10143C03243F8221007
:100E20000D4B019A5209019901F01F01012000FAAE
:100E300001F1603243F82210074B019A52090199DF
:100E400001F01F01012000FA01F143F8221005B062
:100E50005DF8044B704700BF00E100E0AFF3008095
:100E600010B485B001900091019B03F00303DB00F7
:100E700003930D4B019A92080B49019880080630A4
:100E800051F820000399FF2404FA01F1C9430840F6
:100E90000399009C04FA01F10143063243F8221041
:100EA00005B05DF8044B704700ED00E0AFF3008043
:100EB00082B00190024B9B69024A9A61FEE700BF33
:100EC0006818002060650008AFF30080AFF3008071
:100ED00000B583B0FFF7DCFE00F09AFA00F0D0F91D
:100EE00001F026FB01F08CFB00F072F91248402162
:100EF00000F096FC0246114B9A61104B9B6901224F
:100F000083F820200D4B9B690D4ADA6100F078F8D8
:100F1000002383F3118862B6084B9B69094A9A61E2
:100F20000023009308484FF4A4710122074B00F0FE
:100F30001FFD03B05DF804FBF813002068180020C3
:100F40000004002060700008B0120020B10E0008FC
:100F500000B583B000F00CF9244B9B6993F8233063
:100F6000002B07D0214B9B6993F82320013AD2B282
:100F700083F823201D4B9B695A6A01325A621C4B2D
:100F8000DB685A1C1A4BDA60194B1A68184B9A42E4
:100F900029D0174B1B689A68013A9A601CE0019BA4
:100FA000DB680093019B0022DA60019B1B68104AFA
:100FB0005A60019B1A680E4B1A6000F081F80023FA
:100FC00083F31188019B1A69009B104698472023E0
:100FD00083F3118800F05CF8054B1B680193019BBB
:100FE0009B68002BDBD003B05DF804FB6818002081
:100FF00058180020AFF30080AFF30080AFF30080FB
:1010000008B5064B1B68002B03D1054B1B68002B52
:1010100002D0044800F024F908BD00BF44140020A9
:101020004814002080650008AFF30080AFF3008013
:1010300008B5074B1B68002B03D1064B1B68002B20
:1010400002D0054800F00CF9024B01221A6008BDDD
:10105000441400204814002088650008AFF3008085
:1010600008B5074B1B68002B03D1064B1B68002BF0
:1010700002DC054800F0F4F8024B00221A6008BDBB
:10108000441400204814002090650008AFF300804D
:1010900008B5074B1B68002B03DD064B1B68002BB4
:1010A00002D0054800F0DCF8024B01221A6008BDAE
:1010B000441400204814002098650008AFF3008015
:1010C00008B5074B1B68002B03DD064B1B68002B84
:1010D00002DC054800F0C4F8024B00221A6008BD8B
:1010E0004414002048140020A0650008AFF30080DD
:1010F00008B5202383F31188094B1B68002B03DB01
:10110000084B1B68002B02D0074800F0A9F8044BDD
:101110001B685A1C024B1A60002383F3118808BD18
:101120004414002048140020A8650008AFF3008094
:1011300008B5202383F31188094B1B68002B03DDBE
:10114000084B1B68002B02D0074800F089F8044BBD
:101150001B685A1E024B1A60002383F3118808BDD6
:101160004414002048140020B0650008AFF300804C
:1011700008B5064B1B68002B03DB054B1B68002BD7
:1011800002DC044800F06CF808BD00BF44140020E5
:1011900048140020B8650008AFF30080AFF300806A
:1011A00008B5064B1B68002B03D1054B1B68002BB1
:1011B00002DC044800F054F808BD00BF44140020CD
:1011C00048140020C0650008AFF30080AFF3008032
:1011D000034B40221A60024B024A5A60704700BF1C
:1011E0004C14002054140020AFF30080AFF30080B3
:1011F00082B00190124B5B68124AD2681A60104BA1
:101200005B68114A92695A600D4B5B68019A926A59
:101210009A600B4B5B68019A92F820201A73084B76
:101220005B6803F11002064B5A60054B5A68074B86
:101230009A4202D3024B064A5A6002B0704700BF7E
:101240004C14002058180020681800205418002062
:1012500054140020AFF30080AFF30080AFF30080A0
:1012600000B583B00190044B019A1A60FFF7D0FCDF
:1012700003B05DF804FB00BF54180020AFF30080FA
:10128000074B074A5A60064B5A68054B1A60044BD5
:101290004FF0FF329A60024B0022DA60704700BFC5
:1012A00058180020AFF30080AFF30080AFF3008048
:1012B00000B587B00390029101920093FFF758FFA9
:1012C000039B002B05D0019B002B02D0029B002B1F
:1012D00002D11D48FFF7C4FF039B009A1A61039BCC
:1012E000019ADA60194B1B68059307E0059B9B6820
:1012F000029AD31A0293059B1B680593059B9A6873
:10130000029B9A42F2D3039B059A1A60039B1B68C7
:101310005A68039B5A60039B5B68059A0399516066
:10132000059A52681A60039B029A9A60059A074BC5
:101330009A4205D0059B9A68029BD21A059B9A6037
:1013400007B05DF804FB00BFD06500085818002006
:1013500000B583B00190FFF70BFF019B002B02D17A
:101360001348FFF77DFF019BDB68002B02D111487A
:10137000FFF776FF019B1A680F4B9A4208D0019B3A
:101380001B68019A12689168019A92680A449A60EF
:10139000019B5B68019A12681A60019B1B68019AA5
:1013A00052685A60019B0022DA6003B05DF804FBCA
:1013B000E0650008F065000858180020AFF30080D1
:1013C00084B00190019B1B680393039B1A68019BE7
:1013D0001A60019B1B68019A5A60039B184604B06F
:1013E000704700BFAFF30080AFF30080AFF3008021
:1013F00082B00190019B5B68019A12681A60019BA0
:101400001B68019A52685A60019B184602B07047E7
:10141000084B084A5A60074B5A68064B1A60054B3E
:1014200000229A60034B034A5A61024B5A69014BEE
:101430001A61704768180020AFF30080AFF3008096
:1014400000B585B00190FFF793FE019B93F8203023
:10145000002B04D0019B93F820300E2B02D11348AF
:10146000FFF7FEFE019B002283F82020104B039320
:10147000039B1B680393039B9A68019B9B689A429A
:10148000F6D2019B039A1A60039B5A68019B5A602B
:10149000019B5B68039A01995160039A52681A6034
:1014A000019B184605B05DF804FB00BF10660008FC
:1014B00068180020AFF30080AFF30080AFF3008026
:1014C00000B585B003468DF80730FFF769FE164B6F
:1014D0009B690393039B9DF8072083F82020039BBF
:1014E000142283F823201048FFF76AFF02460E4BB0
:1014F0009A610D4B9B69012283F820200398FFF726
:1015000077FE6B46A3F16402039BDB699A4202D229
:101510000648FFF7A5FE044B9B6918460399FFF7A1
:101520003FFC05B05DF804FB681800202466000845
:1015300000B585B00190019B0393202383F31188AC
:10154000FFF7A6FD039B93F820300D2B2CD801A2AA
:1015500052F823F08D150008A9150008A9150008F8
:1015600099150008A9150008A3150008A915000879
:10157000A9150008A9150008A9150008A915000853
:10158000A9150008A9150008A3150008FFF798FD84
:10159000002383F3118813E0039B9B6A9A6801324E
:1015A0009A600398FFF724FF039B4FF0FF329A6283
:1015B0000398FFF745FFFFF783FD002383F31188AE
:1015C00005B05DF804FB00BFAFF30080AFF300800F
:1015D00000B589B0034600918DF80730FFF7E0FDB4
:1015E000009BB3F1FF3F15D0104B9B6903AA104637
:1015F00000990F4AFFF75CFE9DF807301846FFF789
:101600005FFF069B002B04D003AB1846FFF7A0FE3C
:1016100005E004E09DF807301846FFF751FF034B43
:101620009B699B6A184609B05DF804FB68180020A6
:1016300031150008AFF30080AFF30080AFF30080F6
:1016400000B585B001900091FFF7AAFD019B009ABB
:101650009A62019B9A68154B9B699B689A4203D8D2
:101660000198FFF7EDFE1DE0104B9B691846FFF750
:10167000E7FE03900D4B019A9A61019B012283F8CA
:1016800020200398FFF7B4FD6B46A3F16402039B8F
:10169000DB699A4202D20648FFF7E2FD01980399FE
:1016A000FFF77EFB05B05DF804FB00BF6818002063
:1016B00024660008AFF30080AFF30080AFF3008032
:1016C00008B5FFF76DFD054B1B689A68034B9B69D6
:1016D0009B689A4201D900F03BF808BD68180020C9
:1016E00000B583B0154B9B6901931448FFF768FE62
:1016F0000246124B9A61114B9B69012283F820200C
:10170000019B142283F823200198FFF799FE01988A
:10171000FFF76EFD6B46A3F16402019BDB699A4201
:1017200002D20748FFF79CFD044B9B6918460199BC
:10173000FFF736FB03B05DF804FB00BF681800201C
:1017400024660008AFF30080AFF30080AFF30080A1
:1017500000B583B0204B9B6900931F48FFF730FE14
:1017600002461D4B9A611C4B9B69012283F8202085
:10177000009B002283F82020174B0193019B1B68DC
:101780000193019B9A68009B9B689A42F6D8009B44
:10179000019A1A60019B5A68009B5A60009B5B6823
:1017A000019A00995160019A52681A600098FFF7F7
:1017B0001FFD6B46A3F16402009BDB699A4202D2D3
:1017C0000648FFF74DFD044B9B6918460099FFF74B
:1017D000E7FA03B05DF804FB6818002024660008EF
:1017E00008B5064B9B6993F82330002B02D1FFF715
:1017F00077FF01E0FFF7ACFF08BD00BF68180020CD
:1018000084B00190019B1B680393039B1A68019BA2
:101810001A60039B184604B0704700BFAFF3008006
:1018200082B001900091019B009A9A60019B022274
:1018300083F82020019B002283F82120019B1422A1
:1018400083F82320019B009A5A64019B00221A64AA
:10185000019B0022DA63019B00225A62019B012254
:1018600083F82220019B00229A61019B124A1A618F
:10187000114B5A69019B5A61019B5B690E4A0199A0
:1018800051610D4A52691A61019B03F12C02019BBF
:10189000DA62019B03F13002019B5A63019B5A6B90
:1018A000019B1A63019B03F14C02019BDA61019BCE
:1018B000184602B0704700BF68180020AFF30080E0
:1018C00084B00390029113468DF8073005E0039B26
:1018D0005A1C03929DF807201A70039A029B9A42A1
:1018E000F5D304B0704700BFAFF30080AFF30080C2
:1018F00000B587B00390029101920093039B05937A
:10190000FFF736FC039B002B09D0029BB3F59C7FAD
:1019100005D3019B7F2B02D8009B002B02D10F48DF
:10192000FFF79EFC029B643B039A1A44059BDA6016
:10193000059BDB68009A1A64059BDB68089A5A6469
:10194000059BDB68064A1A6605980199FFF768FF50
:101950000346184607B05DF804FB00BF4066000868
:10196000C10D0008AFF30080AFF30080AFF300803B
:1019700000B589B00590049103920293059B4C3306
:1019800005981946FF22FFF79BFF059B03F14C02C8
:101990000599049B0B44104619465522FFF790FF0A
:1019A000202383F31188FFF743FB0A9B00930598DC
:1019B0000499039A029BFFF79BFF07900798002169
:1019C000FFF73EFEFFF74CFB002383F31188079BD4
:1019D000184609B05DF804FBAFF30080AFF3008058
:1019E00000B583B00190019B002B02D10948FFF79D
:1019F00037FC202383F31188FFF71AFB0620019997
:101A0000FFF7E6FDFFF72CFB002383F3118803B0FB
:101A10005DF804FB80660008AFF30080AFF3008040
:101A200000B583B00190202383F31188FFF700FBFA
:101A3000019800F005F803B05DF804FBAFF30080F7
:101A400000B585B00190184B9B690393039B019AE5
:101A50009A6208E0039B2C331846FFF7D1FE034639
:101A60001846FFF7EDFC039BDA6A039B2C339A427E
:101A7000F0D1039B93F8213003F00303002B09D12D
:101A8000039B5B69039A12691A61039B1B69039AA2
:101A900052695A610E20FFF713FD0448FFF7E0FB7F
:101AA00005B05DF804FB00BF6818002090660008D0
:101AB00000B585B00190202383F31188FFF7B8FAB1
:101AC000019B93F82230002B02D12548FFF7C8FB79
:101AD000019B93F82230013BDAB2019B83F822206C
:101AE000019B93F822308DF80F30FFF7B9FA0023ED
:101AF00083F311889DF80F30002B2DD1019B93F8B3
:101B000020300E2B28D1019B93F8213003F00303E2
:101B1000012B02D0022B0ED01EE0019B5B69019AC3
:101B200012691A61019B1B69019A52695A610198F5
:101B300000F0F6FD10E0019B5B69019A12691A61E1
:101B4000019B1B69019A52695A61019B9B6C184663
:101B5000019900F0BDFE00BF05B05DF804FB00BFB9
:101B6000F4660008AFF30080AFF30080AFF30080AD
:101B700000B589B0059004910392029305980499E9
:101B800000F056FD0790079B002B01D100232DE0AC
:101B9000079B4C3307981946FF22FFF791FE079BDE
:101BA00003F14C020799049B0B4410461946552239
:101BB000FFF786FE202383F31188FFF739FA0A9B8B
:101BC000009307980499039A029BFFF791FE0690F1
:101BD000069B012283F8212006980021FFF730FDA3
:101BE000FFF73EFA002383F31188069B184609B0DD
:101BF0005DF804FBAFF30080AFF30080AFF300802B
:101C000000B583B0202383F31188FFF711FA0A4B44
:101C10001B690193019B93F822300133DAB2019BD7
:101C200083F82220FFF71CFA002383F31188019B1D
:101C3000184603B05DF804FB68180020AFF300807D
:101C400000B585B00190202383F31188FFF7F0F9E8
:101C5000019B1B690393039A114B9A4202D1002303
:101C600003930FE0039B93F82230FF2B02D10D4822
:101C7000FFF7F6FA039B93F822300133DAB2039BA5
:101C800083F82220FFF7ECF9002383F311880198F1
:101C9000FFF70EFF039B184605B05DF804FB00BF7D
:101CA0006818002030670008AFF30080AFF30080B1
:101CB00084B001900091009B0393039B1B680393E6
:101CC000039A009B9A4205D0039B9A68019B9B68EC
:101CD0009A42F2D2019B039A1A60039B5A68019BB5
:101CE0005A60019B5B68039A01995160039A52689C
:101CF0001A6004B0704700BFAFF30080AFF30080FC
:101D000084B00190019B1B680393039B1A68019B9D
:101D10001A60019B1B68019A5A60039B184604B025
:101D2000704700BFAFF30080AFF30080AFF30080D7
:101D300082B00190019B5B68019A12681A60019B56
:101D40001B68019A52685A60019B184602B070479E
:101D500000B583B00190019B002B02D10748FFF72B
:101D60007FFA019A019B5A60019B5A68019B1A6095
:101D7000019B00229A6003B05DF804FB50670008E5
:101D800000B583B00190202383F31188FFF750F949
:101D9000019800F00DF8FFF763F9002383F3118831
:101DA00003B05DF804FB00BFAFF30080AFF3008029
:101DB00000B585B001903C4B9B690293FFF7F0F9A9
:101DC000019B002B02D13948FFF74AFA019B9B681F
:101DD000002B5BD0019B9B68039334E0029B9A68C5
:101DE000039B9A60039B93F82030042B04D0052BAF
:101DF00011D0002B1AD02CE00398FFF799FF024670
:101E0000039B9B6A10461946FFF752FF039B9B6A90
:101E10009B68039317E00398FFF78AFF0246039B32
:101E20009B6A10461946FFF743FF0BE0039B012214
:101E300083F820200398FFF77BFF03461846FFF73F
:101E4000FFFA00BF05E0039B9A68029B9B689A42D9
:101E5000C4D3019B02981946FFF72AFF029B019AFF
:101E60009A620420FFF72CFB019B9A68029B9A421E
:101E700002D00F48FFF7F4F9029B1A6C019B9A42BB
:101E800003D00C48FFF7ECF90AE009E0019B029A45
:101E90009A60029B1A6C019BDA60029B019A1A6499
:101EA00005B05DF804FB00BF6818002060670008FB
:101EB0007067000884670008AFF30080AFF300800C
:101EC00000B587B0314B9B690393202383F31188BE
:101ED000FFF7AEF8039B1B6C002B02D12C48FFF7D9
:101EE000BFF9039B1B6C9A68039B9A4202D0294856
:101EF000FFF7B6F9039B1B6C0293029BDA68039B06
:101F00001A64029B1A68029B9A4232D0039B5B6C54
:101F10000493039B1B6C059311E0059B1A68059BBA
:101F20009A4209D0059B1B689A68049B9A4203D980
:101F3000059B1B689B680493059BDB680593059BC9
:101F4000002BEAD1039B049A9A60029B1846FFF784
:101F5000D7FE0190029B019A9A60019B1A6C029B2A
:101F6000DA60019B029A1A6401980021FFF768FB6E
:101F700002E0029B00229A60FFF772F8002383F3CD
:101F80001188029B184607B05DF804FB6818002012
:101F9000AC670008C0670008AFF30080AFF30080B3
:101FA00000B585B001900091FFF7E2F8019B002B8E
:101FB00002D10F48FFF754F9019B1B68039310E00F
:101FC000039BDA68009B1A43039BDA60039B5A6801
:101FD000039B9B681046194600F012F8039B1B6890
:101FE0000393039A019B9A42EAD105B05DF804FB82
:101FF0002C680008AFF30080AFF30080AFF30080DF
:1020000000B583B001900091FFF7B2F8019B002B5F
:1020100002D11648FFF724F9019BDA6B009B1A43A3
:10202000019BDA63019B93F82030082B06D1019BBA
:10203000DA6B019B9B6A1340002B0DD1019B93F837
:102040002030092B0ED1019BDA6B019B9B6A1A4051
:10205000019B9B6A9A4205D10198FFF7F1F903466B
:1020600000229A6203B05DF804FB00BF54680008C8
:1020700082B001900091019B009A1A60009B5A68FF
:10208000019B5A60019B5B68009A01995160009A1C
:1020900052681A6002B07047AFF30080AFF300805F
:1020A00084B00190019B1B680393039B1A68019BFA
:1020B0001A60019B1B68019A5A60039B184604B082
:1020C000704700BFAFF30080AFF30080AFF3008034
:1020D00000B583B001900091009B002B02D14FF01E
:1020E000FF330FE0094B9B69019A9A62074B9A698B
:1020F000019B10461946FFF7BBFF0D200099FFF723
:1021000067FA0346184603B05DF804FB6818002020
:1021100084B00390029101920093039A039B5A604A
:10212000039B5A68039B1A60039B00229A60039BDF
:10213000029A5A61039B5A69039B9A61039B9A69AD
:10214000039BDA60029A019B1A44039B1A61039B6A
:10215000009ADA61039B049A1A6204B0704700BFC8
:1021600000B583B00190FFF703F8019BDA68019B8B
:102170005A61019B5A69019B9A61019B00229A60F6
:102180000BE0019B1846FFF78BFF03461846FFF74D
:1021900057F903466FF001029A62019B1A68019B8E
:1021A0009A42EED103B05DF804FB00BFAFF30080AC
:1021B00000B585B001900091202383F31188FEF7CC
:1021C00037FF019BDB69002B04D0019BDB69019881
:1021D00098470FE00EE001980099FFF779FF039010
:1021E000039B002B06DAFEF73BFF002383F31188E5
:1021F000039B21E0019B9B68002BECD0019B9B681B
:102200005A1E019B9A60019B9B69591C019A91611E
:102210001B788DF80B30019B9A69019B1B699A42D0
:1022200003D3019BDA68019B9A61FEF719FF002333
:1022300083F311889DF80B30184605B05DF804FB58
:1022400000B587B00390029101920093039BDB6974
:10225000049300230593019B002B02D12A48FEF72B
:10226000FFFF202383F31188FEF7E2FE049B002B7F
:1022700003D0049B039898470EE00DE00398009963
:10228000FFF726FF0346002B06D0FEF7E9FE0023EA
:1022900083F31188059B32E0039B9B68002BEDD0F4
:1022A000039B9B685A1E039B9A60029B5A1C0292D6
:1022B000039A9269501C0399886112781A70039BE3
:1022C0009A69039B1B699A4203D3039BDA68039BB9
:1022D0009A61FEF7C5FE002383F31188059B013345
:1022E0000593019B013B0193019B002B01D1059BB1
:1022F00005E0202383F31188FEF79AFEB6E718461F
:1023000007B05DF804FB00BF90680008AFF30080E1
:1023100084B00390029101920093039A039B5A6048
:10232000039B5A68039B1A60039B019A9A60039B64
:10233000029A5A61039B5A69039B9A61039B9A69AB
:10234000039BDA60029A019B1A44039B1A61039B68
:10235000009ADA61039B049A1A6204B0704700BFC6
:1023600000B583B00190FEF703FF019BDA68019B83
:102370005A61019B5A69019B9A61019B1B691A462C
:10238000019BDB68D31A1A46019B9A600BE0019B04
:102390001846FFF785FE03461846FFF751F8034637
:1023A0006FF001029A62019B1A68019B9A42EED17A
:1023B00003B05DF804FB00BFAFF30080AFF3008013
:1023C00000B587B003900B4601928DF80B302023A7
:1023D00083F31188FEF72CFE0EE003980199FFF7B6
:1023E00077FE0590059B002B06DAFEF739FE0023E9
:1023F00083F31188059B28E0039B9B68002BECD09E
:10240000039B9B685A1E039B9A60039B5B69591C44
:10241000039A51619DF80B201A70039B5A69039B24
:102420001B699A4203D3039BDA68039B5A61039B9F
:10243000DB69002B03D0039BDB6903989847FEF709
:102440000FFE002383F311880023184607B05DF8C0
:1024500004FB00BFAFF30080AFF30080AFF3008058
:1024600000B587B00390029101920093039BDB6952
:10247000049300230593019B002B02D12A48FEF709
:10248000EFFE202383F31188FEF7D2FD0DE00398C1
:102490000099FFF71DFE0346002B06D0FEF7E0FD76
:1024A000002383F31188059B39E0039B9B68002B75
:1024B000EDD0039B9B685A1E039B9A60039B5B694C
:1024C000591C039A5161029A511C029112781A7098
:1024D000039B5A69039B1B699A4203D3039BDA68E7
:1024E000039B5A61049B002B02D0049B03989847DE
:1024F000FEF7B6FD002383F31188059B0133059396
:10250000019B013B0193019B002B01D1059B06E040
:10251000202383F31188FEF78BFD00BFC5E7184623
:1025200007B05DF804FB00BFA4680008AFF30080AB
:10253000064B073323F007031A46054B1A60054B79
:1025400023F007031A46044B1A607047041B00204F
:102550008418002000C0012088180020AFF30080FC
:1025600000B585B00190202383F31188FEF760FD4C
:10257000019800F00DF80390FEF772FD002383F33D
:102580001188039B184605B05DF804FBAFF300808B
:1025900000B585B00190FEF7EBFD019B073323F0FA
:1025A000070301930C4B1B681A460C4B1B68D31A8C
:1025B0001A46019B9A4201D2002309E0074B1B688F
:1025C0000393064B1A68019B1A44044B1A60039B41
:1025D000184605B05DF804FB881800208418002018
:1025E000034B1B681A46034B1B68D31A18467047E7
:1025F0008818002084180020AFF30080AFF300801B
:1026000008B5064B064A1A60044B00229A60034B39
:102610000022DA600348FFF79BFB08BD90180020FA
:1026200061250008A0180020AFF30080AFF3008000
:1026300000B587B001900091019B002B01D1344B74
:102640000193009B073323F007030093019B08339A
:102650000593019B10331846FFF792FB33E0059B6F
:102660001B680493049B5A68009B9A4229D3049BDD
:102670005A68009B08339A4204D2049B1A68059B4F
:102680001A6016E0009B0833049A13440393049BDA
:102690001A68039B1A60049B5A68009BD31AA3F123
:1026A0000802039B5A60059B039A1A60049B009AD8
:1026B0005A60049B019A1A60FFF702FC049B0833DE
:1026C00021E0049B0593059B1B68002BC7D1FFF7F6
:1026D000F7FB019B1B68002B14D0019B1B68009A21
:1026E0000832104698470490049B002B0AD0049BA4
:1026F000019A1A60049B009A5A60049B0833049361
:10270000049B00E00023184607B05DF804FB00BFFF
:1027100090180020AFF30080AFF30080AFF300808B
:1027200000B587B00190019B002B02D13948FEF71C
:1027300097FD019B083B0493049B1B680393039B39
:1027400008330593039B10331846FFF719FB049ACF
:10275000059B9A420AD3059B5B680833059A1A4485
:10276000049B9A4202D92C48FEF77AFD039B03F1A1
:102770000802059B9A4203D0049A059B9A423ED9CF
:10278000059B1B68002B04D0059B1A68049B9A428A
:1027900035D9059B1A68049B1A60059B049A1A6038
:1027A000049B5B680833049A1A44049B1B689A4292
:1027B0000ED1049B5A68049B1B685B68134403F1A9
:1027C0000802049B5A60049B1B681A68049B1A60E9
:1027D000059B5B680833059A1A44049B9A420DD105
:1027E000059B5A68049B5B68134403F10802059B30
:1027F0005A60049B1A68059B1A6004E003E0059B7D
:102800001B680593A3E7FFF75BFB00BF07B05DF80C
:1028100004FB00BFD0680008E0680008AFF3008048
:1028200000B587B001900091019B002B01D1164BA0
:102830000193019B10331846FFF7A2FA002303937C
:1028400000230493019B083305930BE0059B1B6851
:102850005B68039A13440393049B01330493059B21
:102860001B680593059B1B68002BEFD1009B002B79
:1028700002D0009B039A1A60FFF722FB049B1846C4
:1028800007B05DF804FB00BF90180020AFF3008094
:1028900000B585B001900091009B0393FEF768FCA2
:1028A000019B002B02D0009B002B02D10648FEF7B3
:1028B000D7FC019B1A68039B1A60019B039A1A605C
:1028C00005B05DF804FB00BF38690008AFF3008075
:1028D00000B583B001900091202383F31188FEF7A7
:1028E000A7FB01980099FFF7D3FFFEF7B9FB002380
:1028F00083F3118803B05DF804FB00BFAFF30080E1
:1029000008B501F0ADF900F0B3FB064801F008FB93
:1029100000F04EF800F0D4FD00F0B2F9FDF758FEDB
:1029200008BD00BF606F0008AFF30080AFF3008008
:1029300084B001900091104B5B680393009A019B57
:102940009A420BD9039A019B9A4205D3039A009BA2
:102950009A4201D2012300E000230AE0039A019B7E
:102960009A4203D2039A009B9A4201D2012300E0CB
:102970000023184604B07047001000E0AFF3008059
:1029800000B585B00190094B5B680393039A019BE6
:102990001344029300BF03980299FFF7C9FF03464F
:1029A000002BF8D105B05DF804FB00BF001000E07B
:1029B00008B501F065FA08BDAFF30080AFF3008001
:1029C00082B00190019B01221A70019B00225A6083
:1029D00002B07047AFF30080AFF30080AFF3008028
:1029E00000B585B0039002910192039B30331846E5
:1029F0000299019A4FF0FF33FFF732FD0346184664
:102A000005B05DF804FB00BFAFF30080AFF30080BA
:102A100000B585B0039002910192039B0C331846D8
:102A20000299019A4FF0FF33FFF70AFC034618465C
:102A300005B05DF804FB00BFAFF30080AFF300808A
:102A400000B583B001900B468DF80330019B03F174
:102A500030029DF80330104619464FF0FF32FFF761
:102A6000AFFC0346184603B05DF804FBAFF30080EB
:102A700000B583B00190019B0C3318464FF0FF3135
:102A8000FFF796FB0346184603B05DF804FB00BF52
:102A900000B585B003900B4601928DF80B30039B77
:102AA00003F130029DF80B3010461946019AFFF7EA
:102AB00087FC0346184605B05DF804FBAFF30080C1
:102AC00000B583B001900091019B0C33184600992A
:102AD000FFF76EFB0346184603B05DF804FB00BF2A
:102AE00000B585B00390029101920093039B3033AF
:102AF00018460299019A009BFFF7B2FC034618465C
:102B000005B05DF804FB00BFAFF30080AFF30080B9
:102B100000B585B00390029101920093039B0C33A2
:102B200018460299019A009BFFF78AFB0346184654
:102B300005B05DF804FB00BFAFF30080AFF3008089
:102B400000B587B00190019B1B6A0593059BD3F8E4
:102B500054321B681B78042B00D044E0059BD3F84B
:102B600054321B685B695B8A0493059BD3F854322B
:102B70001B68DB8903F00203002B34D1059BDB6962
:102B80001A46059B9B69D31A1A46059B5B69D31AA3
:102B90000393039A049B9A4225D3FEF761FA00231C
:102BA00083F31188039A049BB2FBF3F3049A02FBAC
:102BB00003F30393059BD3F854321A68059B0C3337
:102BC000104601211A46039B00F082FD202383F367
:102BD0001188FEF72DFA059BD3F854321B6818466E
:102BE000012100F0C5FD07B05DF804FBAFF30080E4
:102BF00000B585B00190019B1B6A0393039BD3F83A
:102C000054321B681B78042B00D034E0039BD3F8AC
:102C100054321B689B8903F00203002B2BD1039BCA
:102C20001B6C1A46039BDB6BD31A1A46039B9B6BE8
:102C3000D31A0293029B002B1DD0FEF711FA00233A
:102C400083F31188039BD3F854321A68039B303303
:102C5000104601211A46029B00F062FD202383F3F7
:102C60001188FEF7E5F9039BD3F854321B68184628
:102C7000012100F0B5FD05B05DF804FBAFF3008065
:102C8000704700BFAFF30080AFF30080AFF3008068
:102C900000B585B00390039B144A1A60039B1A1D6C
:102CA000039B5A60039B01221A72039B03F10C02DF
:102CB000039B543303990091104619464FF48072D8
:102CC0000B4BFFF725FA039B03F13002039B03F53F
:102CD000AA7303990091104619464FF48072054B70
:102CE000FFF716FB05B05DF804FB00BF807000081D
:102CF000412B0008F12B0008AFF30080AFF30080F8
:102D000000B583B001900091019B002B02D11348C4
:102D1000FEF7A6FA202383F31188FEF789F9019BB9
:102D20001B7A012B06D0019B1B7A022B02D00C4888
:102D3000FEF796FA019B009AC3F85422009B1B6889
:102D4000019A9A60019B02221A72FEF789F9002308
:102D500083F3118803B05DF804FB00BF50690008DD
:102D600060690008AFF30080AFF30080AFF300802C
:102D700000B585B00190019B9B680393039B0C33C6
:102D80001846FFF7EDF9039B30331846FFF7E8FAD2
:102D9000039B043318460121FFF702F9039B03F15B
:102DA0000C02019B5B695B8A0198012100F090FC99
:102DB0000198012100F0DCFC05B05DF804FB00BFC8
:102DC00082B00190019B93F8303003F06003202B18
:102DD0002CD1019B93F83130212B04D0222B18D019
:102DE000202B0BD020E0019B124A5A62019B072244
:102DF0009A62019B0022DA62012318E0019B0D4ACE
:102E00005A62019B07229A62019B0022DA62012327
:102E10000DE0019B00225A62019B00229A62019BF5
:102E20000022DA62012302E0002300E000231846BA
:102E300002B0704758080020AFF30080AFF3008065
:102E400000B585B001900B468DF80330019B9B685F
:102E50000393202383F31188FEF71AF9039B0433AD
:102E600018460821FFF79CF8039B1B6C1A46039B2E
:102E7000DB6BD31A1A46039B9B6BD31A0293029BFC
:102E8000002B1AD0FEF71CF9002383F31188039B53
:102E900030339DF80320019811461A46029B00F03A
:102EA0003FFC202383F31188FEF7F2F89DF80330EE
:102EB0000198194600F094FC2CE09DF80320019B3A
:102EC000043253F822305B695A689DF80310019B65
:102ED000043153F821301B8A013B1340002B19D1D8
:102EE000FEF7EEF8002383F31188039B30339DF83F
:102EF0000320019811461A46002300F011FC2023FC
:102F000083F31188FEF7C4F89DF803300198194641
:102F100000F066FCFEF7D4F8002383F3118805B0B7
:102F20005DF804FBAFF30080AFF30080AFF30080E7
:102F300000B587B001900B468DF80330019B9B686C
:102F40000593202383F31188FEF7A2F8059B043331
:102F500018460421FFF724F8019B5B695B8A049300
:102F6000059BDB691A46059B9B69D31A1A46059B8C
:102F70005B69D31A0393039A049B9A4221D3FEF709
:102F80009FF8002383F31188039A049BB2FBF3F3A9
:102F9000049A02FB03F30393059B0C339DF8032073
:102FA000019811461A46039B00F092FB202383F3FD
:102FB0001188FEF76DF89DF803300198194600F06E
:102FC000D7FBFEF77DF8002383F3118807B05DF887
:102FD00004FB00BFAFF30080AFF30080AFF30080CD
:102FE00082B001900B468DF8033002B0704700BFED
:102FF00082B00190024B5A68019B9A6002B0704700
:10300000001000E0AFF30080AFF30080AFF300806A
:1030100084B00190114B5B680393019B9B68039AFA
:10302000D21A0F4B1B68D21A019B9A60019B9A68B7
:10303000019BDB689A4204D9019B9A68019BDA6084
:1030400009E0019B9A68019B1B699A4203D2019B8C
:103050009A68019B1A6104B0704700BF001000E03D
:10306000B0180020AFF30080AFF30080AFF3008012
:1030700000B587B00A4B00221A6001AB184600F079
:1030800017F8019B01AA10469847029B01AA104617
:103090009847039A024B1A6007B05DF804FB00BF23
:1030A000B0180020AFF30080AFF30080AFF30080D2
:1030B00082B00190019B084A1A60019B074A5A603E
:1030C000019B00229A60019B0022DA60019B4FF075
:1030D000FF321A6102B07047F12F0008113000086A
:1030E00000B583B00190019B93F83220019B83F8D7
:1030F0003A20019801F014FF019B5B681B68002BCC
:1031000005D0019B5B681B68019801219847019BD2
:1031100003221A7003B05DF804FB00BFAFF3008018
:1031200010B584B00190019B93F8303003F07F021A
:10313000019B93F831301B021343B3F5407F58D005
:10314000B3F5407F12DC022B00F0EE80022B05DC91
:10315000002B28D0012B00F0DC80A6E1B3F5807FA6
:103160002ED0B3F5817F00F036819EE1B3F5C06FBC
:1031700070D0B3F5C06F08DC40F20232934200F029
:103180005F81B3F5A06F4DD08FE1B3F5106F00F004
:10319000988040F60242934200F0BB80B3F5006F86
:1031A00000F0828081E1019B03F13802019B5A62A9
:1031B000019B02229A62019B0022DA62012375E1DF
:1031C000019B93F83230012B11D1019B1B8F23F00F
:1031D00002039AB2019B1A87019B00225A62019B4B
:1031E00000229A62019B0022DA6201235EE1002341
:1031F0005CE1019B93F83230012B11D1019B1B8FB5
:1032000043F002039AB2019B1A87019B00225A6283
:10321000019B00229A62019B0022DA62012345E1B0
:10322000002343E1019B93F83030002B07D1019B31
:1032300093F83130052B02D10198FFF751FF019B24
:1032400000225A62019B00229A62019B0022DA62EC
:1032500001232BE1019B5B685C68019B93F83310B1
:10326000019B93F83220019B93F834301846019B60
:1032700093F835301B029BB203439BB29BB201987B
:10328000A0470390039B002B01D100230EE1039B79
:103290005A68019B5A62039B1A68019B9A62019BC0
:1032A0000022DA62012301E1019B03F13B02019B51
:1032B0005A62019B01229A62019B0022DA62012379
:1032C000F4E0019B93F83220019B83F83B20019BA3
:1032D00093F83B30002B03D1019B03221A7002E0CC
:1032E000019B04221A70019B5B681B68002B05D0B0
:1032F000019B5B681B68019802219847019B002293
:103300005A62019B00229A62019B0022DA62012329
:10331000CCE0019B674A5A62019B02229A62019BA0
:103320000022DA620123C1E0019B93F83430DBB262
:103330005BB2002B27DA019B93F8343003F00F03C4
:10334000DBB20198194601F043FF0346012B02D07E
:10335000022B0BD015E0019B574A5A62019B0222B7
:103360009A62019B0022DA6201239FE0019B534A8B
:103370005A62019B02229A62019B0022DA620123B7
:1033800094E0002392E0019B93F8343003F00F03A4
:10339000DBB20198194601F0FBFE0346012B02D077
:1033A000022B0BD015E0019B434A5A62019B02227B
:1033B0009A62019B0022DA62012377E0019B3F4A77
:1033C0005A62019B02229A62019B0022DA62012367
:1033D0006CE000236AE0019B93F83230002B01D0AF
:1033E000002363E0019B93F8343003F00F03002BBC
:1033F0001BDD019B93F83430DBB25BB2002B0ADAA1
:10340000019B93F8343003F00F03DBB201981946A7
:1034100002F04EF809E0019B93F8343003F00F03FB
:10342000DBB20198194602F023F8019B00225A6290
:10343000019B00229A62019B0022DA62012335E09F
:10344000019B93F83230002B01D000232EE0019B2A
:1034500093F8343003F00F03002B1BDD019B93F82E
:103460003430DBB25BB2002B0ADA019B93F83430C4
:1034700003F00F03DBB20198194601F0D9FF09E010
:10348000019B93F8343003F00F03DBB20198194627
:1034900001F0AEFF019B00225A62019B00229A625A
:1034A000019B0022DA62012300E00023184604B0E9
:1034B00010BD00BFA0700008C0700008B070000808
:1034C00008B501F0DDFB08BDAFF30080AFF300806D
:1034D00082B00190019B01221A70019B00225A6068
:1034E000019B00229A60019B00229A81019B00228D
:1034F000DA8102B0704700BFAFF30080AFF3008005
:1035000000B585B001900091019B002B02D0009B7B
:10351000002B02D11948FDF7A3FE202383F3118865
:10352000FDF786FD019B1B78012B06D0019B1B78C4
:10353000022B02D01248FDF793FE019B009A5A60BD
:103540000023039308E0019B039A0432002143F80F
:103550002210039B01330393039B032BF3D90198A0
:1035600001F0BEFB019B02221A70FDF779FD0023DA
:1035700083F3118805B05DF804FB00BF9069000873
:10358000A0690008AFF30080AFF30080AFF30080C4
:1035900000B585B003900B4601928DF80B30FDF716
:1035A000E7FD039B002B02D0019B002B02D11D489D
:1035B000FDF756FE039B1B78042B02D01A48FDF73B
:1035C0004FFE9DF80B20039B043253F82230002B52
:1035D00002D01648FDF744FE019B5B69002B06D024
:1035E000019B5B6918460021102202F079FC019BC7
:1035F0009B69002B06D0019B9B6918460021102275
:1036000002F06EFC9DF80B20039B0432019943F8F5
:1036100022109DF80B300398194601F099FC05B073
:103620005DF804FBCC690008E4690008006A000842
:1036300000B587B00390019200930B468DF80B30D4
:103640009DF80B20039B043253F822309B690593AD
:10365000059B00221A60059B019ADA60059B009A7F
:103660005A60059B00229A609DF80B30039819461A
:1036700001F0E6FD07B05DF804FB00BFAFF300808A
:1036800000B587B00390019200930B468DF80B3084
:103690009DF80B20039B043253F822305B6905939D
:1036A000059B00221A60059B019ADA60059B009A2F
:1036B0005A60059B00229A609DF80B3003981946CA
:1036C00001F0FEFD07B05DF804FB00BFAFF3008022
:1036D00000B587B00390019200930B468DF80B3034
:1036E0009DF80B20039B043253F822309B6905930D
:1036F000059B01221A60059B019ADA60059B009ADE
:103700005A60059B00229A609DF80B300398194679
:1037100001F096FD07B05DF804FB00BFAFF3008039
:1037200000B587B00390019200930B468DF80B30E3
:103730009DF80B20039B043253F822305B690593FC
:10374000059B01221A60059B019ADA60059B009A8D
:103750005A60059B00229A609DF80B300398194629
:1037600001F0AEFD07B05DF804FB00BFAFF30080D1
:1037700000B583B001900B468DF80330FDF7F8FCDF
:10378000019B002B02D11448FDF76AFD019BDB89E8
:103790001A469DF8033042FA03F303F00103002BAD
:1037A00001D0012314E0019BDB899AB29DF803301C
:1037B000012101FA03F39BB213439BB29AB2019B1E
:1037C000DA819DF803300198194601F0C9FD002304
:1037D000184603B05DF804FB546A0008AFF300809C
:1037E00000B583B001900B468DF80330FDF7C0FCA7
:1037F000019B002B02D11448FDF732FD019B9B89F0
:103800001A469DF8033042FA03F303F00103002B3C
:1038100001D0012314E0019B9B899AB29DF80330EB
:10382000012101FA03F39BB213439BB29AB2019BAD
:103830009A819DF803300198194601F0B1FD0023EB
:10384000184603B05DF804FB6C6A0008AFF3008013
:1038500000B585B00190019B02221A70019B0022E5
:103860001A87019B002283F83A20019B002283F8EB
:103870003B20019B00229A81019B0022DA810023D8
:10388000039308E0019B039A0432002143F82210BD
:10389000039B01330393039B032BF3D9019B00226A
:1038A00083F82020019801F0A3FA05B05DF804FB2D
:1038B00000B585B001900B468DF80330019B0022C6
:1038C00083F82020019B30339DF803200198114696
:1038D0001A4601F09DFC019B5B689B68002B07D09A
:1038E000019B5B689B68019898470346002B24D195
:1038F000019B93F8303003F06003002B05D1019851
:10390000FFF70EFC0346002B17D10198002101F0B0
:103910008FFD0198002101F06BFD019B5B681B6826
:10392000002B05D0019B5B681B6801980521984717
:10393000019B052283F8202087E0019B93F8363015
:103940001A46019B93F837301B0213430393019BE4
:103950009A6A039B9A4202D9019B039A9A62019B3D
:1039600093F83030DBB25BB2002B37DA019B9B6AF5
:10397000002B1AD0019B012283F82020019B5A6A58
:10398000019B9B6A01980021FFF77AFE202383F3B5
:103990001188FDF77DFB01980021FFF721FFFDF75E
:1039A0008FFB002383F311884FE0019B022283F8F1
:1039B00020200198002100220023FFF739FE202358
:1039C00083F31188FDF764FB01980021FFF7D0FE17
:1039D000FDF776FB002383F3118836E0019B9B6A99
:1039E000002B1AD0019B032283F82020019B5A6AE6
:1039F000019B9B6A01980021FFF71AFE202383F3A5
:103A00001188FDF745FB01980021FFF7B1FEFDF796
:103A100057FB002383F3118817E0019B042283F8EE
:103A200020200198002100220023FFF729FE2023F7
:103A300083F31188FDF72CFB01980021FFF7D0FEDE
:103A4000FDF73EFB002383F3118805B05DF804FB0E
:103A500000B585B001900B468DF80330019B93F8BB
:103A60002030012B02D0042B49D055E0019B93F864
:103A700036301A46019B93F837301B0213430393E9
:103A8000019B9A6A039B9A4220D2019B9B6A019AEE
:103A90001269128AB3FBF2F102FB01F29B1A002BAE
:103AA00014D10198002100220023FFF7E9FD202313
:103AB00083F31188FDF7ECFA01980021FFF790FEDF
:103AC000FDF7FEFA002383F311883CE0019B0222FC
:103AD00083F820200198002100220023FFF7A8FD91
:103AE000202383F31188FDF7D3FA01980021FFF713
:103AF0003FFEFDF7E5FA002383F3118823E0019BE5
:103B0000DB6A002B03D0019BDB6A01989847019B7D
:103B1000002283F8202016E00198002101F088FCA3
:103B20000198002101F064FC019B5B681B68002B7D
:103B300005D0019B5B681B68019805219847019B94
:103B4000052283F8202005B05DF804FBAFF3008068
:103B500000B583B001900B468DF80330019B93F8BC
:103B60002030022B1AD0032B2CD1019B042283F886
:103B700020200198002100220023FFF781FD20234F
:103B800083F31188FDF784FA01980021FFF728FEDE
:103B9000FDF796FA002383F311882AE0019B1B6945
:103BA0009B699B68002B00D00CE0019BDB6A002B1B
:103BB00003D0019BDB6A01989847019B002283F8A0
:103BC000202016E00198002101F032FC019800212C
:103BD00001F00EFC019B5B681B68002B05D0019B6C
:103BE0005B681B68019805219847019B052283F8B3
:103BF000202003B05DF804FBAFF30080AFF300803A
:103C0000134B134A126842F480721A60114B1B6FF7
:103C100003F44073B3F5007F06D00E4B4FF48032AF
:103C20001A670C4B00221A670A4B1B6F03F4004300
:103C3000002B0BD1074B074A126F42F400721A6730
:103C4000044B044A126F42F400421A67704700BFE7
:103C50000070004000380240AFF30080AFF30080F6
:103C600008B5254B244A126942F001021A61224B21
:103C700000221A61204B204A526942F001025A6127
:103C80001D4B00225A611C4B1B4A926942F00102F3
:103C90009A61194B00229A61174B174A126A1A62ED
:103CA000154B00221A62144B134A526A42F0010269
:103CB0005A62114B00225A62104B44F29F125A6012
:103CC0000E4B00229A600D4B07221A600C4B0C4AD7
:103CD000D26842F08072DA600A4B0A4A126842F0F7
:103CE00001021A60044B044A126C42F080521A64BA
:103CF000FFF786FF08BD00BF0038024010E000E07B
:103D0000F0ED00E0001000E0AFF30080AFF30080C2
:103D1000344B4FF080521A64334B4FF480421A6098
:103D200000BF314B5B6803F48043002BF9D02D4B6F
:103D30002C4A126842F001021A6000BF294B1B682E
:103D400003F00203002BF9D0264B264A126842F4F6
:103D500080321A6000BF234B1B6803F40033002B32
:103D6000F9D0204B1F4A526F42F001025A6700BF40
:103D70001C4B5B6F03F00203002BF9D0194B1B4A5D
:103D80005A60184B174A126842F080721A6000BFDE
:103D9000144B1B6803F00073002BF9D0114A114B30
:103DA0009968134B0B439360124B40F205721A60F3
:103DB0000C4B0C4A926842F002029A6000BF094B19
:103DC0009B6803F00C03082BF9D1064B054A526C93
:103DD00042F480425A64034B024A526E42F48042DB
:103DE0005A6670470038024000700040085440078F
:103DF00000940838003C0240AFF30080AFF300802D
:103E000000B583B00190019BDB6800221A82019B00
:103E10001B78042B05D1019B02221A70019800F037
:103E200047F8019B5B685B680198984703B05DF8B1
:103E300004FB00BFAFF30080AFF30080AFF300805E
:103E400008B5FDF755F90448FFF7DAFFFDF770F9FB
:103E5000FCF73EFF08BD00BFB4180020AFF30080A0
:103E600008B5FDF745F90448FFF7CAFFFDF760F90B
:103E7000FCF72EFF08BD00BFC4180020AFF3008080
:103E800008B5074B074ADA600548FEF799FD064B6F
:103E90004FF08042DA600448FEF792FD08BD00BF93
:103EA000B418002000000140C4180020AFF30080C7
:103EB00082B00190019BDB6800221A80019BDB68C5
:103EC00000221A82019BDB6800229A8102B07047AF
:103ED00082B001900091009B5A68019B5A60009B40
:103EE0009A68019B9A60009BDA68019BDA60009BEC
:103EF0001A69019B5A61009B5A69019B1A62009BD7
:103F00009A69019B5A62009B1A68019B1A6002B071
:103F1000704700BFAFF30080AFF30080AFF30080C5
:103F200000B583B00190244A234B1B6B6FEA5323E7
:103F30006FEA43231363204A1F4B1B6D6FEA532321
:103F40006FEA43231365019B1C481946FFF7C0FF26
:103F5000019B1C331A481946FFF7BAFF019B3833FF
:103F600018481946FFF7B4FF019B54331648194609
:103F7000FFF7AEFF019B703314481946FFF7A8FF07
:103F8000019B8C3312481946FFF7A2FF019BA8330F
:103F900010481946FFF79CFF019BC4330E48194691
:103FA000FFF796FF019BE0330C481946FFF790FF9F
:103FB00003B05DF804FB00BF00380240000002407F
:103FC0000004024000080240000C024000100240C1
:103FD0000014024000180240001C02400020024071
:103FE00084B00190019B1B680393039B1A68019B9B
:103FF0001A60019B1B68019A5A60039B184604B023
:10400000704700BFAFF30080AFF30080AFF30080D4
:1040100000B583B00190019B1B6D002B07D0019B65
:104020001B6D1846FDF70CFA019B00221A6503B0C0
:104030005DF804FBAFF30080AFF30080AFF30080C6
:1040400000B585B00190019BDB6B0393039B0122BC
:104050001A6100BF039B1B6903F00103002BF9D118
:104060000C20FEF78DFC00BF039B1B69002BFBDAC5
:1040700005B05DF804FB00BFAFF30080AFF3008034
:1040800084B00190019BDB6B0293002303936CE0EF
:10409000029A039B48335B0113441B68002B14DA1C
:1040A000029A039B48335B0113444FF080421A602D
:1040B00000BF029A039B5B01134403F608131B68BD
:1040C00003F00203002BF4D006E0029A039B48336E
:1040D0005B01134400221A60029A039B5B011344A4
:1040E00003F5116300221A60029A039B5B011344DB
:1040F00003F608134FF0FF321A60029A039B5833FD
:104100005B0113441B68002B14DA029A039B58339B
:104110005B0113444FF080421A6000BF029A039B78
:104120005B01134403F608331B6803F01003002BF4
:10413000F4D006E0029A039B58335B01134400223B
:104140001A60029A039B5B01134403F5316300225A
:104150001A60029A039B5B01134403F608334FF085
:10416000FF321A60039B01330393019B1B6C9A6817
:10417000039B9A428CD2029B4FF00112C3F81C2879
:1041800004B07047AFF30080AFF30080AFF300805E
:1041900000B585B00190019BDB6B0393039B10225C
:1041A0001A6100BF039B1B6903F01003002BF9D1B8
:1041B0000C20FEF7E5FB05B05DF804FBAFF30080D3
:1041C00000B585B001900091019BDB6B0393009BD0
:1041D0009B0143F02002039B1A6100BF039B1B69F4
:1041E00003F02003002BF9D10C20FEF7C9FB05B02A
:1041F0005DF804FBAFF30080AFF30080AFF3008005
:1042000082B00190019B1B6C1A68019B5A6402B03A
:10421000704700BFAFF30080AFF30080AFF30080C2
:1042200000B585B001900091019B5B6C0393019BED
:104230005A6C009B1A44019B5A64019B5A6C019B67
:104240001B6C5B689A4202D90348FDF709F8039B8F
:10425000184605B05DF804FBC06A0008AFF30080A3
:1042600084B003900291019209E0029B1A68039BBB
:104270001A60029B04330293019B013B0193019B53
:10428000002BF2D1029B184604B07047AFF30080B8
:1042900000B585B0039002910192019B03339B0806
:1042A000039802991A46FFF7DBFF05B05DF804FB9F
:1042B00000B58BB0039002910192019B099360E0DD
:1042C000099B9B080693069B002B2AD0029B1B6927
:1042D0001A46029B9B69D31A002B00DA03339B100A
:1042E0000593069A059B9A4238BF13460493049B94
:1042F0009B00099AD31A0993029B9B69039819465C
:10430000049AFFF7ADFF0246029B9A61029B9A69ED
:10431000029B1B699A4204D3029BDA68029B9A6152
:104320002FE0099B002B00D12EE0002308930023EF
:1043300007931DE0029B9B69591C029A91611B78AF
:104340001A46079BDB0002FA03F3089A134308930B
:10435000029B9A69029B1B699A4203D3029BDA680B
:10436000029B9A61099B013B0993079B01330793C9
:10437000099B002B02D0079B032BDBD9039B089AD8
:104380001A60099B002B9BD1202383F31188FCF733
:104390004FFE029B9A68019B1A44029B9A600AE0B6
:1043A000029B1846FFF71CFE03461846FDF748F827
:1043B000034600229A62029B1A68029B9A42EFD13E
:1043C000FDF77EF9FCF74CFE002383F311880BB058
:1043D0005DF804FBAFF30080AFF30080AFF3008023
:1043E00086B00390029101920BE0039B1B6805933A
:1043F000029B059A1A60029B04330293019B013BC6
:104400000193019B002BF0D1029B184606B0704728
:1044100086B00390029101920093019B03339B08A5
:104420000193009B03339B08009311E0039B1B68DF
:104430000593009B002B08D0029B059A1A60029BF3
:1044400004330293009B013B0093019B013B0193CA
:10445000019B002BEAD106B0704700BFAFF300808C
:1044600000B58BB0039002910192019B099353E038
:10447000099B9B080793079B002B21D000230693E1
:10448000079A069B9A4238BF13460593059B9B00EB
:10449000099AD31A0993029B5B6903981946059AF6
:1044A000FFF79EFF0246029B5A61029B5A69029BDC
:1044B0001B699A4204D3029BDA68029B5A612BE083
:1044C000099B002B00D12AE0039B1B680493002367
:1044D00008931BE0029B5B69591C029A5161089A80
:1044E000D200049921FA02F2D2B21A70029B5A69E0
:1044F000029B1B699A4203D3029BDA68029B5A61B2
:10450000099B013B0993089B01330893099B002BEE
:1045100002D0089B032BDDD9099B002BA8D12023B7
:1045200083F31188FCF784FD029B9A68019B1A446F
:10453000029B9A600AE0029B1846FFF751FD034672
:104540001846FCF77DFF034600229A62029B1A6818
:10455000029B9A42EFD1FDF7B3F8FCF781FD0023EF
:1045600083F311880BB05DF804FB00BFAFF300804C
:1045700010B586B00190019BDB6B1B6A0593059B10
:1045800003F4F013B3F5002F00F08780B3F5402F4C
:1045900003D0B3F5802F1BD080E0059A47F6F07367
:1045A00013401B090493059B03F00F030393019B26
:1045B000DB6B03F58052019B0399043153F82130E2
:1045C0001B6A10461946049A0823FFF721FF65E08D
:1045D000059A47F6F07313401B090493059B03F0FB
:1045E0000F030393019B039A043253F822309B6913
:1045F0001B68002B10D0019BDB6B03F58052019BE5
:104600000399043153F821309B69DB681046194641
:10461000049AFFF725FF2EE0019BDB6B03F5805129
:10462000019B039A043253F822309B69DA68019B9C
:104630000398043053F820309B695868019B039C11
:10464000043453F824309B699B68C31A084611460A
:10465000049AFFF7DDFE019B039A043253F82230DF
:104660009B69019A0399043152F821209269D1681B
:10467000049A0A44DA60019B039A043253F8223008
:104680009B69019A0399043152F82120926991683B
:10469000049A0A449A6000BF00E000BF06B010BD53
:1046A00000B585B001900B468DF803309DF80320CE
:1046B000019B043253F822305B699A689DF803101D
:1046C000019B043153F821305B695B689A4201D346
:1046D00001238CE09DF80320019B043253F8223023
:1046E0005B695A689DF80310019B043153F821302F
:1046F0005B699B68D31A03939DF80320019B0432E6
:1047000053F822301B8A1A46039B9A4207D29DF81F
:104710000320019B043253F822301B8A0393019B30
:10472000DA6B9DF803305B01134403F618131B6822
:104730009BB29A00039B9A4201D2002357E09DF856
:104740000320019B043253F822305B691B68002B65
:1047500014D0019BDA6B9DF8033001331B031A441C
:104760009DF80310019B043153F821305B69DB682D
:1047700010461946039AFFF79BFD25E0019BDA6B73
:104780009DF8033001331B031A449DF80310019B6D
:10479000043153F821305B69DB6810461946039AEF
:1047A000FFF776FD9DF80320019B043253F8223079
:1047B0005B699DF80310019A043152F82120526977
:1047C000D168039A0A44DA609DF80320019B043201
:1047D00053F822305B699DF80310019A043152F8B6
:1047E000212052699168039A0A449A605EE718464C
:1047F00005B05DF804FB00BFAFF30080AFF30080AD
:1048000000B585B001900B468DF80330019BDB6B42
:1048100003939DF80330039A5B01134403F60813D6
:104820001B6802939DF80330039A5B01134403F65F
:1048300008134FF0FF321A60029B03F00103002BB4
:1048400022D0039BD3F8103803F00103002B1BD0B8
:10485000019B9B899AB29DF80330012101FA03F371
:104860009BB2DB439BB213409BB29AB2019B9A81ED
:104870009DF80320019B043253F822309B689DF879
:104880000320019811469847029B03F08003002BF8
:104890002ED0039BD3F834289DF80330012101FA70
:1048A00003F31340002B23D0202383F31188FCF75C
:1048B000EFFB019B9A6C9DF80330012101FA03F391
:1048C0001A43019B9A64039BD3F834289DF8033064
:1048D000012101FA03F3DB431A40039BC3F8342898
:1048E0000198FFF795FBFCF7EBFB002383F311889E
:1048F00005B05DF804FB00BFAFF30080AFF30080AC
:1049000000B585B001900B468DF80330019BDB6B41
:1049100003939DF80330039A5B01134403F60833B5
:104920001B6802939DF80330039A5B01134403F65E
:1049300008334FF0FF321A60029B03F00803002B8C
:1049400012D0039BD3F8143803F00803002B0BD0CC
:104950009DF80320019B043253F822305B689DF8D8
:104960000320019811469847029B03F00103002B96
:1049700022D0039BD3F8143803F00103002B1BD083
:10498000019BDB899AB29DF80330012101FA03F300
:104990009BB2DB439BB213409BB29AB2019BDA817C
:1049A0009DF80320019B043253F82230DB689DF808
:1049B000032001981146984705B05DF804FB00BF3D
:1049C00000B587B00190019BDB6B0593059B5A698D
:1049D000059B9B6913400493059B049A5A61049BB1
:1049E00003F48053002B0DD00198FEF731FF019B9B
:1049F0005B681B68002B05D0019B5B681B680198F6
:104A000000219847049B03F40053002B02D0059B20
:104A1000D3F80838049B03F00803002B09D0019B4E
:104A20005B68DB68002B04D0019B5B68DB68019846
:104A30009847049B03F01003002B12D0202383F32C
:104A40001188FCF725FB059B9B6923F01002059B51
:104A50009A610198FFF7DCFAFCF732FB002383F33D
:104A60001188059BD3F818380393049B03F4802323
:104A7000002B23D0039B03F00103002B03D00198EC
:104A80000021FFF7BDFE039B03F00203002B03D0C0
:104A900001980121FFF7B4FE039B03F00403002BF0
:104AA00003D001980221FFF7ABFE039B03F008033C
:104AB000002B03D001980321FFF7A2FE049B03F40F
:104AC0000023002B23D0039B03F48033002B03D05F
:104AD00001980021FFF714FF039B03F40033002B20
:104AE00003D001980121FFF70BFF039B03F4802300
:104AF000002B03D001980221FFF702FF039B03F470
:104B00000023002B03D001980321FFF7F9FE07B023
:104B10005DF804FBAFF30080AFF30080AFF30080DB
:104B200000B589B00190019B0693069BDB6B059352
:104B3000464B9B69464A9A61202383F31188FCF710
:104B400077FA069B1B78012B09D0069B9B6C002BE8
:104B500012D1059B5B6903F01003002B0CD1059B60
:104B60009B6943F01002059B9A61384B9A69069B3A
:104B70001A650220FCF7A4FCFCF772FA002383F309
:104B8000118800238DF81F3053E002E00698FFF7EC
:104B9000EFFC059B5B6903F01003002BF6D19DF839
:104BA0001F30012202FA03F30493069B9A6C049BC4
:104BB0001340002B38D0202383F31188FCF738FAF8
:104BC000059B9B6823F00102059B9A60069B9A6CEB
:104BD000049BDB431A40069B9A64FCF741FA0023CE
:104BE00083F311889DF81F3006981946FFF758FD8A
:104BF0000390202383F31188FCF71AFA059B9B6826
:104C000043F00102059B9A60039B002B07D1059B93
:104C1000D3F83428049B1A43059BC3F83428FCF7C7
:104C20001FFA002383F311889DF81F3001338DF89C
:104C30001F309DF81F20069B1B6C9B689A42A4D9CD
:104C4000202383F31188FCF7F3F97AE76818002032
:104C5000D86A0008AFF30080AFF30080AFF30080A4
:104C600008B5FCF745FA0448FFF7AAFEFCF760FA1E
:104C7000FCF72EF808BD00BFD8180020AFF3008065
:104C800000B583B01348FEF723FC124B0022DA6410
:104C9000104B00221A650F4B4FF0A042DA630D4B08
:104CA0000D4A1A640D4B0193019B4C330198194630
:104CB000FF22FCF705FE019B03F14C02019B03F56B
:104CC000B673104619465522FCF7FAFD03B05DF89D
:104CD00004FB00BFD8180020007100083019002024
:104CE00000B587B00390039BDB6B0593039B1B7898
:104CF000012B6BD1039A374B9A4212D1364B364A6D
:104D0000526B42F080025A63334B334A526942F08D
:104D100080025A61304B00225A614320E021FCF7A7
:104D20005FF8039B00229A64039BDB6C002B11D17C
:104D3000039B5833039A009218464FF4DC71022209
:104D4000264BFCF7D5FD0246039B1A65039B1A6DA3
:104D5000039BDA64059B224ADA60059B214AC3F86B
:104D60000028059B0022C3F8002E059B4FF450221B
:104D70009A630398FFF764F9059B00229A600398F1
:104D8000FFF77EF9059B0022C3F81028059B00223F
:104D9000C3F81428059B0022C3F81C28039B5B68FA
:104DA000DB68002B04D1059B4FF440529A6103E06D
:104DB000059B43F208029A61059B4FF0FF325A614E
:104DC000059B9B6843F00102059B9A6007B05DF864
:104DD00004FB00BFD818002000380240214B000817
:104DE0004014004003002002AFF30080AFF30080C6
:104DF00010B584B00190019BDB6B029301980021F8
:104E0000FFF7DEF90023039322E0029A039B483365
:104E10005B0113444FF000621A60029A039B5833FF
:104E20005B0113444FF000621A60029A039B5B011E
:104E3000134403F60813FF221A60029A039B5B01D6
:104E4000134403F60833FF221A60039B01330393D4
:104E5000019B1B6C9A68039B9A42D6D2029B4FF02F
:104E6000FF32C3F81828029B4FF00112C3F81C2828
:104E70000198FFF7C5F9019B1B6C1A68029B5A62E7
:104E80000198FFF785F9029BD3F8003823F4FE62FE
:104E9000029BC3F80028029B9B6943F4402343F024
:104EA0001003029A9361029B0922C3F81028029B07
:104EB0000922C3F81428019B164A1A61029B00229A
:104EC000C3F8102B402343F0805343F40043029A6D
:104ED000C2F8003B029B0022C3F81029402343F094
:104EE000805343F40043029AC2F8003940239B08E0
:104EF0009BB21B041C4640239B089BB20198194699
:104F0000FFF78EF9034644EA0302029B9A6204B05B
:104F100010BD00BFD0700008AFF30080AFF3008079
:104F200084B00190019BDB6B0393039BD3F80038A3
:104F300023F4FE62019B93F83A301B011A43039B52
:104F4000C3F8002804B07047AFF30080AFF30080CF
:104F500030B587B001900B468DF80330019BDB6BB9
:104F600003939DF80320019B043253F822301B6801
:104F700003F00303032B00F2FE8001A252F823F09A
:104F8000914F0008974F00089D4F0008A34F00085D
:104F90007A4B059308E07A4B059305E0794B05932E
:104FA00002E0794B059300BF9DF80330039A5B0143
:104FB000134403F5316300221A609DF80320019B1E
:104FC000043253F82230DB68002B1ED09DF80330EA
:104FD0009DF80310019A043152F82120528A11469B
:104FE000059A0A43039958335B010B441A60039BEB
:104FF000D3F81C289DF803301033012101FA03F384
:105000001A43039BC3F81C281DE09DF803309DF84C
:1050100003200399583252010A44126822F40042D4
:10502000039958335B010B441A60039BD3F81C2887
:105030009DF803301033012101FA03F3DB431A40DA
:10504000039BC3F81C289DF80330039A5B011344AB
:1050500003F5116300221A609DF80320019B0432BE
:1050600053F822309B68002B58D09DF80320019BF9
:10507000043253F822301B8A9B089BB204939DF89C
:105080000320019B043253F822309B8B012B0BD958
:105090009DF80320019B043253F822309B8B1A4663
:1050A000049B02FB03F304939DF803305C1E049BF6
:1050B0001D0401980499FFF7B3F8034645EA03027B
:1050C000039904F140039B000B445A609DF80330A0
:1050D00001981946FFF774F89DF803309DF80320F6
:1050E00092051146059A11439DF80300019A043078
:1050F00052F82020128A0A43039948335B010B447B
:105100001A60039BD3F81C289DF80330012101FA93
:1051100003F31A43039BC3F81C282DE09DF80330CA
:10512000013B039A40339B001344184A5A609DF890
:10513000033001981946FFF743F89DF803309DF8B6
:1051400003200399483252010A44126822F40042B3
:10515000039948335B010B441A60039BD3F81C2866
:105160009DF80330012101FA03F3DB431A40039B4E
:10517000C3F81C2800E000BF07B030BD008000105D
:10518000008004100080081000800C100004000251
:1051900084B001900B468DF80330019BDA6B9DF8CB
:1051A000033058335B0113441B680393039B03F4E0
:1051B0000043002B01D1002307E0039B03F40013FD
:1051C000002B01D0012300E00223184604B07047F1
:1051D00084B001900B468DF80330019BDA6B9DF88B
:1051E000033048335B0113441B680393039B03F4B0
:1051F0000043002B01D1002307E0039B03F40013BD
:10520000002B01D0012300E00223184604B07047B0
:1052100000B585B003900B4601928DF80B309DF8D8
:105220000B20039B043253F822301B6A0198194665
:105230000822FAF7ADFF05B05DF804FBAFF300807C
:1052400010B485B001900B468DF803309DF8032013
:10525000019B043253F822309B690393039B5A68E5
:105260009DF80310019B043153F821305B8A1344ED
:105270005A1E9DF80310019B043153F821305B8ABC
:10528000B2FBF3F30293019BD96B9DF80330029AB2
:10529000D0049DF80340019A043452F82420528A25
:1052A000024342F0C0425B010B4403F531631A60D4
:1052B00005B05DF8044B7047AFF30080AFF300809A
:1052C00010B485B001900B468DF803309DF8032093
:1052D000019B043253F822305B690393039B5B68A4
:1052E000002B0BD1019BDA6B9DF803305B0113445B
:1052F00003F511634FF400221A6028E0039B5A68FB
:105300009DF80310019B043153F821301B8A13448C
:105310005A1E9DF80310019B043153F821301B8A5B
:10532000B2FBF3F30293019BD96B9DF80330029A11
:10533000D0049DF80340019A043452F824205269A5
:10534000526802435B010B4403F511631A6005B018
:105350005DF8044B704700BFAFF30080AFF30080EF
:1053600082B001900B468DF80330019BD96B9DF8FC
:105370000330019AD06B9DF8032058325201024449
:10538000126842F0806258335B010B441A6002B02D
:10539000704700BFAFF30080AFF30080AFF3008031
:1053A00082B001900B468DF80330019BD96B9DF8BC
:1053B0000330019AD06B9DF8032048325201024419
:1053C000126842F0044248335B010B441A60019BAF
:1053D000DB6B019AD26BD2F834189DF803200120C0
:1053E00000FA02F20A43C3F8342802B0704700BF43
:1053F00082B001900B468DF80330019BD96B9DF86C
:105400000330019AD06B9DF80320583252010244B8
:10541000126842F4001258335B010B441A6002B068
:10542000704700BFAFF30080AFF30080AFF30080A0
:1054300082B001900B468DF80330019BD96B9DF82B
:105440000330019AD06B9DF8032048325201024488
:10545000126842F4001248335B010B441A6002B038
:10546000704700BFAFF30080AFF30080AFF3008060
:1054700082B001900B468DF80330019BD96B9DF8EB
:105480000330019AD06B9DF8032058325201024438
:10549000126822F4001258335B010B441A6002B008
:1054A000704700BFAFF30080AFF30080AFF3008020
:1054B00082B001900B468DF80330019BD96B9DF8AB
:1054C0000330019AD06B9DF8032048325201024408
:1054D000126822F4001248335B010B441A6002B0D8
:1054E000704700BFAFF30080AFF30080AFF30080E0
:1054F00000B587B0039002910192039B002B02D06C
:10550000019B039A1A60019B1B680593059B002B66
:1055100001D1002320E00598029900F081FD0346A7
:10552000059A134405930598029900F051FD02462F
:10553000019B1A60019B1B68002B06D0019B1B6816
:10554000591C019A116000221A70059B1B78002BD0
:1055500001D0059B00E00023184607B05DF804FB6E
:1055600000B583B00190009101980349009A00F0C2
:105570009FFA03B05DF804FBF06A0008AFF3008007
:1055800000B583B00190009109E0009B1B68019871
:1055900006491A4600F08CFA009B08330093009BE2
:1055A0001B68002BF1D103B05DF804FBFC6A000816
:1055B00000B587B0059004910392049B002B04DD95
:1055C00005981949FFF7CCFF2AE005981749184AB2
:1055D00000F06EFA05981749174A00F069FA059825
:1055E0001649174A00F064FA05981649164A00F061
:1055F0005FFA05981549164A00F05AFA05981549B8
:10560000154A00F055FA05981449154A00F050FA69
:10561000144B009305981449144A154B00F048FAAE
:1056200007B05DF804FB00BF006B0008086B0008C2
:105630001C6B00082C6B0008406B0008606B0008B6
:10564000746B0008806B0008946B0008A06B000866
:10565000B46B0008CC6B0008E06B0008FC6B000822
:10566000106C0008606C0008386C0008506C000872
:105670005C6C0008AFF30080AFF30080AFF30080F4
:1056800000B585B0039002910192029B002B04DDCE
:1056900003980749FFF764FF06E0064BDB680398B1
:1056A00005491A4600F004FA05B05DF804FB00BF96
:1056B0006C6C000858180020746C0008AFF3008070
:1056C00000B585B0039002910192009313E0039B13
:1056D0001B681846019900F053FC0346002B07D1C4
:1056E000039B5B6802980099069A9847002307E09D
:1056F000039B08330393039B1B68002BE7D1012313
:10570000184605B05DF804FBAFF30080AFF30080EE
:1057100000B5A1B0039000231D93039B1B681C934D
:10572000039B5B681B935B4B9B695B4A9A611C986C
:105730005A4900F0BDF91C98594900F0B9F909AB74
:105740001C981946402200F0DBF80346002B04D0D9
:105750001C98544900F0ACF98AE009AA19AB10462C
:1057600051491A46FFF7C4FE1A901A9B1E93002354
:105770001F9312E01F9B032B06DD1C984B4900F082
:1057800097F900231E9312E01F9B5A1C1F929B0047
:1057900020AA13441A9A43F8702C19AB00204249EE
:1057A0001A46FFF7A5FE1A901A9B002BE2D11F9B09
:1057B0009B0020AA1344002243F8702C1E9B002B50
:1057C00055D01E983A4900F0DBFB0346002B08D168
:1057D0001F9B002B04DD1C983549FFF7C1FE46E0F6
:1057E00046E01E98334900F0CBFB0346002B1BD14B
:1057F0001F9B002B04DD1C982E49FFF7B1FE36E0FD
:105800001C982D4900F054F91C982C49FFF7B8FE5C
:105810001B9B002B03D01C981B99FFF7B1FE1C9813
:10582000274900F045F922E004AB009323481C9976
:105830001E9A1F9BFFF744FF0346002B17D01B9BAC
:10584000002B0AD004AB00931B981C991E9A1F9B37
:10585000FFF736FF0346002B09D01C9819491E9A02
:1058600000F026F91C98184900F022F963E762E776
:10587000202383F31188FBF7DBFB14480021FCF79E
:105880008FFB1D98FCF7DCF80023184621B05DF86B
:1058900004FB00BF681800207C6C0008846C0008C2
:1058A0009C6C0008A46C0008B06C0008B46C000884
:1058B000CC6C0008D46C0008DC6C00086008002088
:1058C000F46C0008F86C0008FC6C0008001B002059
:1058D00000B587B0059004910392059B00930020CA
:1058E0000499039A034BFCF743F90346184607B0A3
:1058F0005DF804FB11570008AFF30080AFF30080A0
:1059000000B587B0039002910192029B0593039B1F
:105910001B685B680DF1130203981146012298473A
:105920000346002B01D1012355E09DF81330042BD1
:1059300005D103982A4900F0BBF801234BE09DF8FC
:105940001330082B1ED1059A029B9A4219D0039B53
:105950001B689B689DF81320039811469847039B8A
:105960001B689B68039820219847039B1B689B68D2
:105970009DF81320039811469847059B013B05931A
:1059800028E027E09DF813300D2B08D10398154926
:1059900000F08EF8059B00221A7000231BE09DF892
:1059A00013301F2B00D815E0019B013B029A1A44CB
:1059B000059B9A420ED9039B1B689B689DF8132098
:1059C000039811469847059B5A1C05929DF8132091
:1059D0001A709CE79BE7184607B05DF804FB00BF10
:1059E000046D0008F46C0008AFF30080AFF3008092
:1059F00088B00390029101920093029B0593009B53
:105A0000002B02D1029B049301E0009B0493039BB3
:105A10000B330693059B019AB3FBF2F2019901FB4C
:105A200002F29B1A0793079B30330793079B392B8E
:105A300002DD079B07330793069B013B0693079BF9
:105A4000DAB2069B1A70059A019BB2FBF3F3059339
:105A5000049A019BB2FBF3F30493049B002BD9D16E
:105A6000039B0B331A46069BD31A0793039B5A1CBE
:105A70000392069A511C069112781A70079B013BFB
:105A80000793079B002BF1D1039B184608B0704782
:105A900000B585B003900291019203980299019A92
:105AA0000023FFF7A5FF0346184605B05DF804FB89
:105AB0000EB400B590B0019012AB0693119B5A1C26
:105AC00011921B788DF837309DF83730002B00D1BC
:105AD000F2E19DF83730252B08D0019B1B689B68AD
